:020000040800F2
:100000009807002029020008CB170008D91500081E
:10001000C91700081F040008011E000800000000A6
:10002000000000000000000000000000E7170008CA
:100030002104000800000000E51700084918000826
:10004000430200084302000843020008430200087C
:10005000430200084302000843020008430200086C
:10006000430200084302000843020008430200085C
:10007000430200084302000843020008430200084C
:10008000430200084302000843020008430200083C
:10009000430200084302000843020008430200082C
:1000A000430200084302000843020008430200081C
:1000B000430200084302000843020008430200080C
:1000C00043020008430200084302000843020008FC
:1000D00043020008F51D000843020008430200081F
:1000E00043020008430200084302000843020008DC
:1000F00043020008430200084302000843020008CC
:1001000043020008430200084302000843020008BB
:1001100043020008430200084302000843020008AB
:10012000430200084302000843020008430200089B
:10013000430200084302000843020008430200088B
:10014000430200084302000843020008430200087B
:10015000430200084302000843020008430200086B
:10016000430200084302000843020008430200085B
:100170004302000843020008430200080000000098
:10018000430200084302000800F002F800F03CF8C7
:100190000AA090E8000C82448344AAF10107DA45E2
:1001A00001D100F031F8AFF2090EBAE80F0013F0F8
:1001B000010F18BFFB1A43F0010318472C1D000064
:1001C0004C1D0000103A24BF78C878C1FAD85207F5
:1001D00024BF30C830C144BF04680C6070470000C1
:1001E0000023002400250026103A28BF78C1FBD840
:1001F000520728BF30C148BF0B6070471FB501F0E0
:1002000061FE1FBD10B510BD00F0CFF81146FFF71D
:10021000F5FF01F007FE00F0EDF803B4FFF7F2FF81
:1002200003BC00F0F5F80000094880470948004782
:10023000FEE7FEE7FEE7FEE7FEE7FEE7FEE7FEE796
:10024000FEE7FEE704480549054A064B70470000F3
:10025000E118000889010008980100209807002093
:10026000980300209803002053EA020C00F06980F4
:100270002DE9F04B4FF00006002B1FBFB3FA83F5BA
:1002800003FA05F424FA05F65E4012BF1643B2FAEB
:1002900082F502FA05F4C5F120051EBF22FA05FC1D
:1002A00044EA0C04203556EA044C4FEA144418BFC3
:1002B000641C4FF000084FF00009904271EB030CF2
:1002C00039D3002919BFB1FA81F701FA07F6B0FA5C
:1002D00080F700FA07F6C7F120071EBF20FA07FCD7
:1002E00046EA0C062037B6FBF4FCA7EB0507103FE7
:1002F00007F01F0BCBF120060CFA0BFB2CFA06F6CD
:1003000044BFB3460026202FA4BF5E464FF0000B2B
:100310005BEA060C08BF4FF0010B19EB0B09ABFBB6
:10032000027C48EB0608C01B06FB02CC0BFB03CC8F
:1003300071EB0C01C1E70B46024641464846BDE859
:10034000F08B13B54FF000004FF00001AFF30080C9
:10035000BDE81C4070474FF0000200B513469446BC
:100360009646203922BFA0E80C50A0E80C50B1F10D
:100370002001BFF4F7AF090728BFA0E80C5048BF21
:100380000CC05DF804EB890028BF40F8042B08BFBF
:10039000704748BF20F8022B11F0804F18BF00F8BB
:1003A000012B7047704770477047754600F02CF876
:1003B000AE4605006946534620F00700854618B052
:1003C00020B5FFF73FFFBDE820404FF000064FF09B
:1003D00000074FF000084FF0000B21F00701AC467A
:1003E000ACE8C009ACE8C009ACE8C009ACE8C00999
:1003F0008D46704710B50446AFF300802046BDE837
:100400001040FFF70ABF0000004870473801002085
:1004100001491820ABBEFEE7260002007047FEE748
:10042000704772B6FEE72DE9F0410446876D00F093
:100430005FF9064694F835000025022806D0802092
:10044000606584F834500120BDE8F08120680168BF
:1004500021F0160101602068416921F080014161AD
:10046000206C08B9A06C20B12068016821F0080157
:1004700001602068016821F0010101600CE000F0DA
:1004800037F9801B052807D920206065032084F8F0
:10049000350084F83450D7E720680068C007EED1F3
:1004A00094F85C103F208840B860012084F8350043
:1004B00084F834500020C7E790F83510022903D0A3
:1004C0008021416501207047052180F835100068C2
:1004D000016821F0010101600020704770B50446F9
:1004E00000F006F90546601C02D004480078044478
:1004F00000F0FEF8401BA042FAD370BD08000020B7
:100500002DE9F84FDFF8BCA10022012503264FF0AA
:100510000F090AF1040BAAF1040E00BF0B6805FADB
:1005200002F42340A34270D10F7907F00307012F93
:1005300001D0022F16D187684FEA420806FA08FC5C
:1005400027EA0C07D1F80CC00CFA08FC4CEA070C9F
:10055000C0F808C04768A7430C79C4F3001494405E
:100560003C4344600C79E443A4070AD0C4684FEAD2
:10057000420C06FA0CF7BC438F6807FA0CF72743C6
:10058000C7600C7904F00304022C12D1D40800EBEC
:10059000840CDCF820405707FF0E09FA07F824EA1C
:1005A0000804D1F8108008FA07F848EA0408CCF8E3
:1005B000208004684FEA420C06FA0CF7BC430F791E
:1005C00007F0030707FA0CF7274307604C6814F499
:1005D000403F70D03C4C276847F480472760246830
:1005E00022F0030704F480440094384C07EB040C19
:1005F000DCF8084897074FEA177809FA08F7BC4370
:10060000334FB84202D1002724E054E0314FB842C2
:1006100001D101271EE0304FB84201D1022719E075
:100620002E4FB84201D1032714E02D4FB84201D11B
:1006300004270FE02B4FB84201D105270AE02A4FCB
:10064000B84201D1062705E0284FB84201D107275B
:1006500000E0082707FA08F72743CCF80878DAF80B
:1006600000405746D1F804C09C435FEACC2C00D52B
:100670001C433C60DBF800405F46D1F804C09C435B
:100680005FEA8C2C00D51C433C60DEF800407746C6
:10069000D1F804C09C435FEA8C3C00D51C433C600D
:1006A000084F083F3C68D1F804C09C435FEACC3C4B
:1006B00000D51C433C60521C102AFFF42FAFBDE84C
:1006C000F88F0000083C01404438024000300140EF
:1006D000000002400004024000080240000C0240FA
:1006E000001002400014024000180240001C0240AA
:1006F00001488068704700000800002002488168B7
:100700000278114481607047080000200B4810B542
:10071000016841F400710160016841F48061016089
:10072000016841F480710160032000F06FF80F2030
:1007300000F006F800F024F8002010BD003C024054
:1007400070B50D4D04464FF47A712878B1FBF0F086
:100750000A490968B1FBF0F000F00CFB48B9102C15
:1007600007D200222146501E00F030F800206C60B5
:1007700070BD012070BD00000800002014000020A2
:100780000A4808B5016841F480410160006800F43E
:10079000804000900548001F016841F080510160D1
:1007A000006800F08050009008BD0000443802400E
:1007B000002809DB00F01F02012191404009800060
:1007C00000F1E020C0F8001170470000F0B40E4BBB
:1007D0001B680C46C3F30223C3F10705042D00D99F
:1007E0000425191D072901D2002300E0DB1E012684
:1007F00006FA05F1491E214099409E40761E16409A
:100800003143F0BC01F0FDBA0CED00E0064900F008
:10081000070208684FF6FF03184040EA0220034A27
:1008200010430860704700000CED00E00000FA057E
:100830002DE9F0470E46050065D0DFF81481D8F8A1
:100840000000F7B200F00700B04207D288F800704D
:10085000D8F8000000F00700B04254D128683D4CA1
:10086000810712D5400703D5206840F4E05020608E
:100870002878000703D5206840F460402060206895
:10088000A96820F0F000084320602878C0072DD028
:10089000304968680839012812D0022813D003288B
:1008A00011D00968890700292DDA216821F0030198
:1008B00001432160FFF71CFF814641F2883A0EE0B8
:1008C00009688903EFE709688901ECE7FFF710FF82
:1008D000A0EB0901514502D90320BDE8F08720684B
:1008E000696800F00C00B0EB810FEFD1D8F8001070
:1008F000404601F00701B14207D90770006800F0D7
:100900000700B04201D00120E7E72878400705D56D
:100910002068E96820F4E050084320602878000748
:1009200006D52068296920F4604040EAC1002060B3
:1009300000F038F82168084AC1F30311515CC8403F
:100940000649086006480068FFF7FAFE0020C4E781
:10095000003C024008380240CE1E0008140000206F
:100960000C0000200448054900680968044AC1F3E6
:100970008221515CC84070471400002008380240B2
:10098000DE1E00080448054900680968044AC1F3EE
:100990004231515CC84070471400002008380240C2
:1009A000DE1E0008154810B5006810F00C0214484F
:1009B00013D01449042A0FD0082A0ED10F4C241F3B
:1009C0002268236802F03F025B0207D52068C0F36B
:1009D0008810A0FB010106E0084610BD2168C1F3A4
:1009E0008811A1FB00010023FFF73EFC2168C1F341
:1009F0000141491C4900B0FBF1F010BD083802402C
:100A00000024F40040787D012DE9F84F04006ED0F9
:100A10002078DFF84C93C007A9F104054AD009F10A
:100A200004000168C1F38101012908D00068C0F306
:100A3000810002280AD1D9F80000400206D52868B2
:100A4000800337D560680028E1D033E06068B0F5F6
:100A5000803F10D0B0F5A02F286810D020F480304F
:100A60002860286820F4802028606068A8B1FFF71B
:100A70003FFE06460DE0286840F48030F4E740F47D
:100A800080202860F7E700BFFFF732FE801B642854
:100A900073D828688003F7D50CE0FFF729FE0646D7
:100AA00005E000BFFFF724FE801B6428F0D828680B
:100AB0008003F7D42078DFF8AC8280074FF0000A7B
:100AC0003ED5A748001D016811F00C0F08D0006842
:100AD000C0F3810002280BD1D9F80000400207D4EE
:100AE0002868800716D5E068012800D112E033E1BC
:100AF000E068B8B10120C8F80000FFF7F9FD06462C
:100B000005E000BFFFF7F4FD801B0228C0D828686D
:100B10008007F7D52868216920F0F80040EAC10075
:100B200028600DE0C8F800A0FFF7E2FD064604E0EB
:100B3000FFF7DEFD801B02281FD828688007F7D446
:100B40002078000722D5864F87486169703771B1D8
:100B500001210160FFF7CCFD064604E0FFF7C8FD68
:100B6000801B022809D838688007F7D50EE0C0F846
:100B700000A0FFF7BDFD064605E082E0FFF7B8FDE7
:100B8000801B02287DD838688007F7D4207840077A
:100B900068D5DFF8CCB100270BF13C0BDBF8000087
:100BA000C0000BD4DBF8001041F08051CBF80010EE
:100BB000DBF80000012700F0805000906B4E306899
:100BC000C00510D4306840F480703060FFF790FDAD
:100BD000009005E0FFF78CFD0099401A022850D8DC
:100BE0003068C005F6D55E4EA0686C3601280FD07F
:100BF0000528306810D020F001003060306820F007
:100C000004003060A068B8B1FFF772FD00900FE0FB
:100C1000306840F00100F4E740F004003060F7E78E
:100C2000FFF766FD0099411A41F28830814266D88B
:100C300030688007F4D50EE0FFF75AFD009007E01A
:100C4000FFF756FD0099411A41F28830814256D88B
:100C500030688007F4D42FB1DBF8001021F0805108
:100C6000CBF80010A069C8B33D49091D0968C1F35C
:100C7000810102294AD00228504607D0C8F86000F6
:100C800000E03CE0FFF734FD04463BE04746C8F88F
:100C90006000FFF72DFD064605E000BFFFF728FDC9
:100CA000801B02282BD828688001F7D4D4E90701DB
:100CB0000843A16A2E4A490802EB0141626A41EAEF
:100CC0008211084394F82C1040EA0161C9F8001021
:100CD00001203866FFF70CFD044606E03EE000BF49
:100CE000FFF706FD001B022809D828688001F7D508
:100CF00034E000BFFFF7FCFC001B022802D90320F0
:100D0000BDE8F88F28688001F4D427E00128F7D0E7
:100D1000D9F80000E26900F4800191421CD1226AF6
:100D200000F03F01914217D147F6C071626A01405D
:100D3000B1EB821F10D1A26A4FF0FF3300F44031B3
:100D400003EB5202B1EB024F06D194F82C1000F0E5
:100D50007060B0EB016F01D00120D1E70020CFE738
:100D60000438024000004742800E474200700040B5
:100D70000000FFFF10B5401EB0F1807F01D30120BD
:100D800010BD4FF0E02460610F21601701F039F8C9
:100D90000020A06107202061002010BD10B590F850
:100DA0003C20012A22D0012280F83C20CA688C68AD
:100DB00022F4407222434C6822F4806222430C6881
:100DC00022F4006222430C6922F4805222434C69CF
:100DD00022F400522243C969002322F480420A43CC
:100DE00001684A6480F83C30002010BD022010BD2C
:100DF00070B590F83C20012A32D0012480F83C40A4
:100E0000022280F83D2003685A689D6822F070062F
:100E10000A6832435A60134B02689A4214D0B2F106
:100E2000804F11D0104B9A420ED0104B9A420BD0EB
:100E30000F4B9A4208D00F4B9A4205D00E4B9A4264
:100E400002D00E4B9A4204D1496825F08003194321
:100E5000916080F83D40002180F83C10084670BD4C
:100E6000022070BD00000140000400400008004066
:100E7000000C004000040140004001400018004008
:100E800010B5040003D094F83D0010B107E0012034
:100E900010BD002084F83C00204600F01FF802201E
:100EA00084F83D00211D206800F022FD012084F817
:100EB000460084F83E0084F83F0084F8400084F83F
:100EC000410084F8420084F8430084F8440084F828
:100ED000450084F83D00002010BD000008B5006802
:100EE0000949884201D1094804E0B0F1804F09D195
:100EF0000648001F016841F001010160006800F030
:100F00000100009008BD000000000140443802408C
:100F100070B5044690F83C000025012817D0012642
:100F200084F83C60022084F83D002068826822F04A
:100F3000770222F47F4282600868502838D00DDCA6
:100F400020284FD005DC90B3102811D14AE00220B0
:100F500070BD302846D040280AD13BE060282FD011
:100F600070280DD0B0F5805F03D0B0F5005F12D0CF
:100F7000012584F83D60002084F83C00284670BDBF
:100F8000CB68D1E90121206800F027FD2068816845
:100F900041F0770109E0CB68D1E90121206800F038
:100FA0001CFD2068816841F480418160E1E719E01F
:100FB000CA684968206800F0E5FD5021206806E015
:100FC000CA684968206800F0EEFD6021206800F0E2
:100FD0000EFDCEE7CA684968206800F0D3FD4021C5
:100FE0002068F4E7226801461046F0E710B586B0A5
:100FF000044614216846FFF7AEF90E49206888427E
:1010000016D10D480021026842F01002026000680B
:1010100000F0100005904FF4206000900220CDE910
:1010200001010120CDE9031069460448FFF768FA81
:1010300006B010BD000001403038024000100240F0
:1010400070B5044690F83C0000260D4601280FD0EC
:10105000012084F83C006AB1042A1DD0082A2FD050
:101060000C2A3FD00126002084F83C00304670BD99
:10107000022070BD206800F0C3FC2068816941F047
:10108000080181612068816921F004018161206883
:1010900081692A69114311E0206800F0E1FC2068B1
:1010A000816941F4006181612068816921F4806176
:1010B0008161206881692A6941EA02218161D2E760
:1010C000206800F003FD2068C16941F00801C1619A
:1010D0002068C16921F00401C1612068C1692A69E1
:1010E000114311E0206800F025FD2068C16941F43A
:1010F0000061C1612068C16921F48061C16120681B
:10110000C1692A6941EA0221C161ACE710B5040056
:1011100003D094F83D0010B107E0012010BD00207D
:1011200084F83C00204600F01EF8022084F83D00C0
:10113000211D206800F0DCFB012084F8460084F8C3
:101140003E0084F83F0084F8400084F8410084F8B1
:10115000420084F8430084F8440084F8450084F891
:101160003D00002010BD704710B50446022249B171
:1011700004290ED0082913D094F84100012816D074
:10118000012010BD94F83E000128F9D184F83E20DA
:101190000FE094F83F000128F2D184F83F2008E0E6
:1011A00094F840000128EBD184F8402001E084F855
:1011B00041200122206800F003FC16492068164AED
:1011C000884201D0904203D1436C43F4004343640E
:1011D0002068884213D0B0F1804F10D00F49884268
:1011E0000DD00F4988420AD00E49884207D090425C
:1011F00005D00D49884202D00C49884204D181684B
:1012000001F00701062903D0016841F001010160E6
:10121000002010BD00000140000401400004004017
:1012200000080040000C0040004001400018004051
:1012300070477047F8B5016804460868CA684B698A
:1012400010F00F0F4FF0000559D003F0010602F423
:101250009077374365D0C10705D0D10503D5616CC0
:1012600041F001016164410705D5D90703D0616CE4
:1012700041F002016164810705D5D90703D0616C93
:1012800041F004016164010707D502F020013143F8
:1012900003D0616C41F008016164616C00293AD0AF
:1012A000800604D5900602D5204600F0BCFC2068DC
:1012B0004069616CC0F38010090700D460B3204618
:1012C00000F08AFC20684069400621D5206814306F
:1012D00050E8001F21F0400140E80012002AF5D13B
:1012E000E06BA8B172490165E06BFFF7E5F80028F3
:1012F00011D0E06B016D01B0BDE8F04008478306F6
:101300000FD593060DD52046BDE8F84000F08BBC04
:101310002046FFF78EFFF8BD2046FFF78AFF656481
:10132000F8BD266B2023012E7ED1C6067CD5D606BD
:101330007AD508684868009048694FF00206400670
:101340004DD5E26B106840684FF480770004000CC4
:101350003AD0A18D814237D9E085D069B8422DD0ED
:1013600020680C3050E8001F21F4807140E8001222
:10137000002AF5D12068143050E8001F21F0010147
:1013800040E80012002AF5D12068143050E8001F10
:1013900021F0400140E80012002AF5D184F84230E3
:1013A000256320680C3050E8001F21F0100140E850
:1013B0000012002AF5D1E06BFFF735F86663A08DC7
:1013C000E18D401A81B206E0A18D8142A8D1D06999
:1013D000B842A5D166632046FFF72AFFF8BDA08D6D
:1013E000E18D401A81B2E08D0028F7D00029F5D0B8
:1013F00020680C3050E8002F22F4907240E800275B
:10140000002FF5D12068143050E8002F22F001029F
:1014100040E80027002FF5D184F84230256320688A
:101420000C3050E8002F00E006E022F0100240E807
:101430000023002BF3D1CDE705062BD5150629D5C2
:1014400094F841002128C9D1A068B0F5805F01D18E
:101450002069B0B1206A411C21622168007848608F
:10146000E08C401E0004000CE084B7D12068C16805
:1014700021F08001C1602068C16841F04001C16075
:10148000F8BD206A0088C0F308004860206A801C0C
:101490002062E5E74006F3D55006F1D5CA6820463C
:1014A00022F04002CA6084F8413000F094F8F8BDA0
:1014B000CB1B000870B5040004D094F8410000254F
:1014C00010B106E0012070BD84F84050204600F0C5
:1014D00023F8242084F841002068C16821F40051D9
:1014E000C160204600F000FC2068016921F49041B1
:1014F00001612068416921F02A0141612068C168C9
:1015000041F40051C1606564202084F8410084F8F2
:1015100042006563002070BDF0B587B00446142119
:101520006846FEF718FF274F236800222649022449
:10153000032507262548BB4224D1234B14331F68BB
:1015400047F010071F601B6803F0100305930B683A
:1015500043F001030B60096802AB01F00101059142
:101560006902CDE9001483E864006946FEF7C8FF0C
:10157000002211462520FFF729F92520FFF718F949
:1015800007B0F0BD124FBB42FAD10F4B10331F68AA
:1015900047F400371F601B6803F4003305930B68A2
:1015A00043F001030B60096802AB01F001010591F2
:1015B0000C21CDE9001483E864006946FEF7A0FF22
:1015C000DEE7000000100140303802400000024019
:1015D0000044004070477047FEE700000D4808B522
:1015E000016841F080010160016801F08001009113
:1015F000016841F001010160016801F00101009101
:10160000016841F010010160006800F010000090D6
:1016100008BD00003038024010B596B000240F9489
:1016200010941194129413941C2168461494FEF79C
:1016300092FE202107A8FEF78EFE2E482C4901605D
:1016400040F24731C0E9011440F2CF71C0E9031400
:101650008021C0E90541FFF713FC08B1FEF7E1FE68
:101660004FF480500F900FA92248FFF751FC08B1AA
:10167000FEF7D7FE1F48FFF749FD08B1FEF7D1FE80
:10168000139413A91B481494FFF7B2FB08B1FEF79B
:10169000C8FE6020CDE900040294039404940594EC
:1016A0000022694613480694FFF7CAFC08B1FEF70A
:1016B000B8FE32200190042269460E48FFF7C0FCB4
:1016C00008B1FEF7AEFE0794089409944FF4005059
:1016D0000A94CDE90B4007A906480E94FFF75EFB7C
:1016E00008B1FEF79EFE0348FFF780FC16B010BD60
:1016F000000001401800002010B586B000241548F5
:10170000009401940294039404944FF08041059452
:10171000C0E90014611EC0E9024104618461FFF761
:10172000AFFB08B1FEF77DFE4FF480500090694694
:101730000848FFF7EDFB08B1FEF773FE049404A917
:1017400004480594FFF754FB002801D0FEF769FE1A
:1017500006B010BD600000200C4810B50A490160B9
:101760004FF4E1314160002181600C22C160C0E989
:1017700004128161C161FFF79DFE002803D0BDE81E
:101780001040FEF74EBE10BD00100140A800002022
:101790000C4810B50A4901604FF4E1314160002165
:1017A00081600C22C160C0E904128161C161FFF750
:1017B00081FE002803D0BDE81040FEF732BE10BD08
:1017C00000440040F0000020FEE7FEE70149096800
:1017D0004863704718000020014909688863704712
:1017E00018000020704770479FED081AC0EE010AEC
:1017F0009FED071A9FED070A00EE810ABCEEC00AB2
:1018000010EE100A80B2FFF7E1BF00000000344381
:101810000000FA440000FA439FED081AC0EE010AE6
:101820009FED071A9FED070A00EE810ABCEEC00A81
:1018300010EE100A80B2FFF7CFBF00000000344363
:101840000000FA440000FA43FEF758BF30B593B0E9
:1018500030216846FEF77FFD14210CA8FEF77BFDC2
:101860001D480025016841F080510160006800F0CA
:10187000805011901948016841F48041016000686E
:10188000022400F480401190012003901020049065
:10189000009406940820CDE90750A820CDE909045A
:1018A00004200B906846FFF7AFF808B172B6FEE768
:1018B0000CA90F2081E831004FF4A0500F904FF495
:1018C0008050109005210CA8FEF7B2FF002801D02F
:1018D00072B6FEE713B030BD4038024000700040E1
:1018E0000248016841F470010160704788ED00E032
:1018F000F0B50268274B284D284E294F294C4FF050
:10190000804C984209D0604507D0A84205D0B0422B
:1019100003D0B84201D0A04204D122F0700E4A6830
:1019200042EA0E0298421BD0604519D0A84217D057
:10193000B04215D0B84213D0A04211D01A4DA842DF
:101940000ED01A4DA8420BD0194DA84208D0194DFF
:10195000A84205D0184DA84202D0184DA84203D184
:1019600022F44075CA682A434D6922F080022A4356
:101970008D68C5620D688562984201D0A04201D190
:1019800009690163016841F00401016001214161BD
:101990000260F0BD0000014000040040000800406B
:1019A000000C0040000401400040014000440140A0
:1019B0000048014000180040001C0040002000408A
:1019C00010B501F01F030121046A99408C430462A1
:1019D000016A9A401143016210BD10B5846842EA61
:1019E000032224F47F440A432243826010BD8268AC
:1019F00022F070020A4342F0070181607047000044
:101A0000F0B5036A026A22F0010202624268846948
:101A1000124E24F073050C682C4323F002058B68EA
:101A20002B430D4DA84201D0B04205D123F0080749
:101A3000CB683B4323F00403A84201D0B04205D158
:101A40004D6922F4407215438A692A4342608461D9
:101A5000496841630362F0BD000001400004014099
:101A6000F0B5026A036A23F01003036243688469D5
:101A70000D6824F4E64444EA05248D6822F020022F
:101A800042EA05120F4D104EA84201D0B04206D1D5
:101A9000CF6822F0800242EA071222F04002A842F8
:101AA00001D0B04207D14D6923F4406343EA850376
:101AB0008D6943EA850343608461496881630262FA
:101AC000F0BD00000000014000040140F0B5026AD2
:101AD000036A23F4807303624368C46922F40072CA
:101AE00024F073050C68124E2C438D6842EA0522DF
:101AF0000E4DA84201D0B04206D1CF6822F4006258
:101B000042EA072222F48062A84201D0B04207D103
:101B10004D6923F4405343EA05138D6943EA0513E5
:101B20004360C4614968C1630262F0BD00000140C6
:101B30000004014030B5046A026A22F48052026255
:101B40004268C3690D6823F4E64343EA05238D68C0
:101B500024F4005444EA0534084DA84202D0084D4C
:101B6000A84204D14D6922F4804242EA85124260C3
:101B7000C36149680164046230BD00000000014097
:101B80000004014010B5036A046A24F001040462F1
:101B9000846924F0F00444EA021423F00A020A43A0
:101BA0008461026210BD10B5036A046A24F0100457
:101BB0000462846923F0A00324F4704444EA0232EE
:101BC00043EA01118261016210BD10B5806B0021F2
:101BD000C185FFF72EFB10BD01680C3151E8002FC5
:101BE00022F4907241E80023002BF5D101681431F2
:101BF00051E8002F22F0010241E80023002BF5D12B
:101C0000016B012909D101680C3151E8002F22F044
:101C1000100241E80023002BF5D1202180F842106A
:101C200000210163704708B590F84210222901D0C5
:101C3000022008BD82684FF480539A4201D10169A5
:101C400021B1816A9A421BD04AB10AE00268816AD6
:101C50005268C2F308020A80816A891C08E002699E
:101C600072B10268526802F07F020A70816A491CF0
:101C70008162C18D491E0904090CC18503D01BE096
:101C800002685268F1E70168CA6822F02002CA605F
:101C90000168CA6822F48072CA6001684A6922F049
:101CA00001024A61202180F8421000214163026B49
:101CB000012A03D0FFF78EFC002008BD01630168F4
:101CC0000C3151E8002F22F0100241E80023002BD4
:101CD000F5D101680A68D20602D50A684968009100
:101CE000818DFFF7A5FAE7E770B504460068016942
:101CF000E26821F44051114301612169A068E26961
:101D000008436169114308432168CA6849F20C63BA
:101D10009A430243CA6020684169A26921F4407174
:101D20001143416131492068884202D030498842DC
:101D300002D1FEF727FE01E0FEF714FEE269002360
:101D4000192164253226B2F5004F626828D0A0FB25
:101D50000101930F9200FEF787FA0146B0FBF5F000
:101D60006FF01802504301EB800006EB0010B0FB4F
:101D7000F5F000F0F002B1FBF5F002EB0012B1FB60
:101D8000F5F06FF01803584301EB800006EB0010EC
:101D9000B0FBF5F000F00F0021681044886070BDC2
:101DA000A0FB010192185B41FEF75EFA0146B0FB11
:101DB000F5F00201B1FBF5F06FF01803584301EBA9
:101DC000800006EBC000B0FBF5F000F0F80002EB7D
:101DD0004002B1FBF5F0584301EB800006EBC00078
:101DE000B0FBF5F000F00700D6E70000001001405E
:101DF000001401400148FFF71DBA0000A8000020B0
:101E0000FEE70907090E002804DB00F1E02080F856
:101E10000014704700F00F0000F1E02080F8141D5E
:101E2000704700002DED028BFEF770FCFFF70EFDF2
:101E3000FFF7D4FBFFF7F0FBFFF75EFCFFF78CFC2E
:101E4000FFF7A6FC00211A48FFF78EF90421184875
:101E5000FFF78AF99FED178A174DDFED188A184CA6
:101E600094ED000AB5EEC00AF1EE10FA01D284ED4D
:101E7000008A2068A84201DDC4ED008A94ED010AC1
:101E8000B5EEC00AF1EE10FA01D284ED018A606865
:101E9000A84201DDC4ED018A94ED000AFFF7A4FC1D
:101EA00094ED010AFFF7B8FC0420FEF717FBD7E713
:101EB00018000020000000000000344300003443FC
:101EC000000000204FF04070E1EE100A7047000063
:101ED00000000000000001020304060708090000DA
:101EE0000000010203040000081F00080000002099
:101EF00018000000C4010008201F0008180000207E
:101F000080070000E00100080000B4420000DC424D
:101F10000100000010000000000000000024F40098
:040000050800018965
:00000001FF
